{
  "contractName": "Voting",
  "abi": [
    {
      "inputs": [],
      "stateMutability": "nonpayable",
      "type": "constructor"
    },
    {
      "anonymous": false,
      "inputs": [
        {
          "indexed": false,
          "internalType": "uint256",
          "name": "candidateId",
          "type": "uint256"
        },
        {
          "indexed": false,
          "internalType": "string",
          "name": "name",
          "type": "string"
        }
      ],
      "name": "CandidateAdded",
      "type": "event"
    },
    {
      "anonymous": false,
      "inputs": [
        {
          "indexed": false,
          "internalType": "uint256",
          "name": "candidateId",
          "type": "uint256"
        }
      ],
      "name": "VoteCasted",
      "type": "event"
    },
    {
      "inputs": [],
      "name": "admin",
      "outputs": [
        {
          "internalType": "address",
          "name": "",
          "type": "address"
        }
      ],
      "stateMutability": "view",
      "type": "function",
      "constant": true
    },
    {
      "inputs": [],
      "name": "candidateCount",
      "outputs": [
        {
          "internalType": "uint256",
          "name": "",
          "type": "uint256"
        }
      ],
      "stateMutability": "view",
      "type": "function",
      "constant": true
    },
    {
      "inputs": [
        {
          "internalType": "uint256",
          "name": "",
          "type": "uint256"
        }
      ],
      "name": "candidates",
      "outputs": [
        {
          "internalType": "uint256",
          "name": "id",
          "type": "uint256"
        },
        {
          "internalType": "string",
          "name": "name",
          "type": "string"
        },
        {
          "internalType": "uint256",
          "name": "voteCount",
          "type": "uint256"
        }
      ],
      "stateMutability": "view",
      "type": "function",
      "constant": true
    },
    {
      "inputs": [
        {
          "internalType": "string",
          "name": "name",
          "type": "string"
        }
      ],
      "name": "addCandidate",
      "outputs": [],
      "stateMutability": "nonpayable",
      "type": "function"
    },
    {
      "inputs": [
        {
          "internalType": "uint256",
          "name": "candidateId",
          "type": "uint256"
        }
      ],
      "name": "vote",
      "outputs": [],
      "stateMutability": "nonpayable",
      "type": "function"
    },
    {
      "inputs": [
        {
          "internalType": "uint256",
          "name": "candidateId",
          "type": "uint256"
        }
      ],
      "name": "getVotes",
      "outputs": [
        {
          "internalType": "uint256",
          "name": "",
          "type": "uint256"
        }
      ],
      "stateMutability": "view",
      "type": "function",
      "constant": true
    }
  ],
  "bytecode": "0x60806040523480156200001157600080fd5b50600280546001600160a01b031916331790556040805180820190915260118152704368616e64726162616275204e6169647560781b60208201526200005790620000be565b6040805180820190915260118152704a6167616e204d6f68616e20526564647960781b60208201526200008a90620000be565b60408051808201909152600c81526b2830bbb0b71025b0b63cb0b760a11b6020820152620000b890620000be565b620003c0565b6002546001600160a01b03163314620001285760405162461bcd60e51b815260206004820152602260248201527f4f6e6c792061646d696e2063616e20706572666f726d2074686973206163746960448201526137b760f11b606482015260840160405180910390fd5b600180549060006200013a83620001cf565b909155505060408051606081018252600180548083526020808401868152600085870181905292835290829052939020825181559251919291908201906200018390826200029c565b5060409182015160029091015560015490517fe83b2a43e7e82d975c8a0a6d2f045153c869e111136a34d1889ab7b598e396a391620001c491849062000368565b60405180910390a150565b600060018201620001f057634e487b7160e01b600052601160045260246000fd5b5060010190565b634e487b7160e01b600052604160045260246000fd5b600181811c908216806200022257607f821691505b6020821081036200024357634e487b7160e01b600052602260045260246000fd5b50919050565b601f8211156200029757600081815260208120601f850160051c81016020861015620002725750805b601f850160051c820191505b8181101562000293578281556001016200027e565b5050505b505050565b81516001600160401b03811115620002b857620002b8620001f7565b620002d081620002c984546200020d565b8462000249565b602080601f831160018114620003085760008415620002ef5750858301515b600019600386901b1c1916600185901b17855562000293565b600085815260208120601f198616915b82811015620003395788860151825594840194600190910190840162000318565b5085821015620003585787850151600019600388901b60f8161c191681555b5050505050600190811b01905550565b82815260006020604081840152835180604085015260005b818110156200039e5785810183015185820160600152820162000380565b506000606082860101526060601f19601f830116850101925050509392505050565b6106ea80620003d06000396000f3fe608060405234801561001057600080fd5b50600436106100625760003560e01c80630121b93f146100675780633477ee2e1461007c578063462e91ec146100a7578063a9a981a3146100ba578063f851a440146100d1578063ff981099146100fc575b600080fd5b61007a6100753660046103d4565b61010f565b005b61008f61008a3660046103d4565b6101c2565b60405161009e93929190610433565b60405180910390f35b61007a6100b5366004610472565b61026d565b6100c360015481565b60405190815260200161009e565b6002546100e4906001600160a01b031681565b6040516001600160a01b03909116815260200161009e565b6100c361010a3660046103d4565b610368565b60008111801561012157506001548111155b6101695760405162461bcd60e51b8152602060048201526014602482015273125b9d985b1a590818d85b991a59185d1948125160621b60448201526064015b60405180910390fd5b600081815260208190526040812060020180549161018683610523565b90915550506040518181527f94b9b209597b37568a0fb4b924237e6e679e8e7bb88cf375dbcf4229c2d5e642906020015b60405180910390a150565b600060208190529081526040902080546001820180549192916101e49061054a565b80601f01602080910402602001604051908101604052809291908181526020018280546102109061054a565b801561025d5780601f106102325761010080835404028352916020019161025d565b820191906000526020600020905b81548152906001019060200180831161024057829003601f168201915b5050505050908060020154905083565b6002546001600160a01b031633146102d25760405162461bcd60e51b815260206004820152602260248201527f4f6e6c792061646d696e2063616e20706572666f726d2074686973206163746960448201526137b760f11b6064820152608401610160565b600180549060006102e283610523565b9091555050604080516060810182526001805480835260208084018681526000858701819052928352908290529390208251815592519192919082019061032990826105d3565b5060409182015160029091015560015490517fe83b2a43e7e82d975c8a0a6d2f045153c869e111136a34d1889ab7b598e396a3916101b7918490610693565b6000808211801561037b57506001548211155b6103be5760405162461bcd60e51b8152602060048201526014602482015273125b9d985b1a590818d85b991a59185d1948125160621b6044820152606401610160565b5060009081526020819052604090206002015490565b6000602082840312156103e657600080fd5b5035919050565b6000815180845260005b81811015610413576020818501810151868301820152016103f7565b506000602082860101526020601f19601f83011685010191505092915050565b83815260606020820152600061044c60608301856103ed565b9050826040830152949350505050565b634e487b7160e01b600052604160045260246000fd5b60006020828403121561048457600080fd5b813567ffffffffffffffff8082111561049c57600080fd5b818401915084601f8301126104b057600080fd5b8135818111156104c2576104c261045c565b604051601f8201601f19908116603f011681019083821181831017156104ea576104ea61045c565b8160405282815287602084870101111561050357600080fd5b826020860160208301376000928101602001929092525095945050505050565b60006001820161054357634e487b7160e01b600052601160045260246000fd5b5060010190565b600181811c9082168061055e57607f821691505b60208210810361057e57634e487b7160e01b600052602260045260246000fd5b50919050565b601f8211156105ce57600081815260208120601f850160051c810160208610156105ab5750805b601f850160051c820191505b818110156105ca578281556001016105b7565b5050505b505050565b815167ffffffffffffffff8111156105ed576105ed61045c565b610601816105fb845461054a565b84610584565b602080601f831160018114610636576000841561061e5750858301515b600019600386901b1c1916600185901b1785556105ca565b600085815260208120601f198616915b8281101561066557888601518255948401946001909101908401610646565b50858210156106835787850151600019600388901b60f8161c191681555b5050505050600190811b01905550565b8281526040602082015260006106ac60408301846103ed565b94935050505056fea264697066735822122081b67b82784d466eaaea6d075052d12d9c746dc15364ec9ca9cea6415f6f57b664736f6c63430008150033",
  "immutableReferences": {},
  "source": "// SPDX-License-Identifier: MIT\r\npragma solidity ^0.8.21;\r\n\r\ncontract Voting {\r\n    struct Candidate {\r\n        uint256 id;\r\n        string name;\r\n        uint256 voteCount;\r\n    }\r\n\r\n    mapping(uint256 => Candidate) public candidates;\r\n    uint256 public candidateCount;\r\n    address public admin;\r\n\r\n    event CandidateAdded(uint256 candidateId, string name);\r\n    event VoteCasted(uint256 candidateId);\r\n\r\n    modifier onlyAdmin() {\r\n        require(msg.sender == admin, \"Only admin can perform this action\");\r\n        _;\r\n    }\r\n\r\n    constructor() {\r\n        admin = msg.sender;\r\n        addCandidate(\"Chandrababu Naidu\");\r\n        addCandidate(\"Jagan Mohan Reddy\");\r\n        addCandidate(\"Pawan Kalyan\");\r\n    }\r\n\r\n    function addCandidate(string memory name) public onlyAdmin {\r\n        candidateCount++;\r\n        candidates[candidateCount] = Candidate(candidateCount, name, 0);\r\n        emit CandidateAdded(candidateCount, name);\r\n    }\r\n\r\n    function vote(uint256 candidateId) public {\r\n        require(candidateId > 0 && candidateId <= candidateCount, \"Invalid candidate ID\");\r\n\r\n        candidates[candidateId].voteCount++;  //  Simply update vote count\r\n        emit VoteCasted(candidateId);\r\n    }\r\n\r\n    function getVotes(uint256 candidateId) public view returns (uint256) {\r\n        require(candidateId > 0 && candidateId <= candidateCount, \"Invalid candidate ID\");\r\n        return candidates[candidateId].voteCount;\r\n    }\r\n}\r\n",
  "sourcePath": "C:\\Users\\j7024\\Downloads\\Project\\blockchain-backend\\contracts\\Voting.sol",
  "compiler": {
    "name": "solc",
    "version": "0.8.21+commit.d9974bed.Emscripten.clang"
  },
  "schemaVersion": "3.4.16",
  "updatedAt": "2025-07-05T06:09:23.169Z",
  "networkType": "ethereum",
  "devdoc": {
    "kind": "dev",
    "methods": {},
    "version": 1
  },
  "userdoc": {
    "kind": "user",
    "methods": {},
    "version": 1
  }
}